{
  "_format": "hh-sol-artifact-1",
  "contractName": "UserGroups",
  "sourceName": "contracts/UserGroups.sol",
  "abi": [
    {
      "anonymous": false,
      "inputs": [
        {
          "components": [
            {
              "internalType": "uint256",
              "name": "id",
              "type": "uint256"
            },
            {
              "internalType": "string",
              "name": "title",
              "type": "string"
            },
            {
              "internalType": "string",
              "name": "color",
              "type": "string"
            }
          ],
          "indexed": false,
          "internalType": "struct UserGroups.Group",
          "name": "g",
          "type": "tuple"
        }
      ],
      "name": "AddUserGrop",
      "type": "event"
    },
    {
      "inputs": [
        {
          "internalType": "string",
          "name": "title",
          "type": "string"
        },
        {
          "internalType": "string",
          "name": "color",
          "type": "string"
        }
      ],
      "name": "addGroupToUser",
      "outputs": [],
      "stateMutability": "nonpayable",
      "type": "function"
    },
    {
      "inputs": [
        {
          "internalType": "uint256",
          "name": "id",
          "type": "uint256"
        },
        {
          "internalType": "string",
          "name": "title",
          "type": "string"
        },
        {
          "internalType": "string",
          "name": "color",
          "type": "string"
        }
      ],
      "name": "changeAllDataInExistingGroup",
      "outputs": [],
      "stateMutability": "nonpayable",
      "type": "function"
    },
    {
      "inputs": [
        {
          "internalType": "uint256",
          "name": "id",
          "type": "uint256"
        },
        {
          "internalType": "string",
          "name": "color",
          "type": "string"
        }
      ],
      "name": "changeColorOfExistingGroup",
      "outputs": [],
      "stateMutability": "nonpayable",
      "type": "function"
    },
    {
      "inputs": [
        {
          "internalType": "uint256",
          "name": "id",
          "type": "uint256"
        },
        {
          "internalType": "string",
          "name": "title",
          "type": "string"
        }
      ],
      "name": "changeTitleOfExistingGroup",
      "outputs": [],
      "stateMutability": "nonpayable",
      "type": "function"
    },
    {
      "inputs": [
        {
          "internalType": "uint256",
          "name": "id",
          "type": "uint256"
        }
      ],
      "name": "getUserGroupById",
      "outputs": [
        {
          "components": [
            {
              "internalType": "uint256",
              "name": "id",
              "type": "uint256"
            },
            {
              "internalType": "string",
              "name": "title",
              "type": "string"
            },
            {
              "internalType": "string",
              "name": "color",
              "type": "string"
            }
          ],
          "internalType": "struct UserGroups.Group",
          "name": "",
          "type": "tuple"
        }
      ],
      "stateMutability": "view",
      "type": "function"
    },
    {
      "inputs": [],
      "name": "getUserGroups",
      "outputs": [
        {
          "components": [
            {
              "internalType": "uint256",
              "name": "id",
              "type": "uint256"
            },
            {
              "internalType": "string",
              "name": "title",
              "type": "string"
            },
            {
              "internalType": "string",
              "name": "color",
              "type": "string"
            }
          ],
          "internalType": "struct UserGroups.Group[]",
          "name": "",
          "type": "tuple[]"
        }
      ],
      "stateMutability": "view",
      "type": "function"
    }
  ],
  "bytecode": "0x608060405234801561001057600080fd5b50610c23806100206000396000f3fe608060405234801561001057600080fd5b50600436106100625760003560e01c806360310c31146100675780636c91bb201461007c5780637edc7d0f1461008f5780638ebef28b146100a2578063ad83dd3f146100cb578063d8314ffc146100de575b600080fd5b61007a61007536600461085e565b6100f3565b005b61007a61008a36600461085e565b610184565b61007a61009d3660046108a5565b61020b565b6100b56100b03660046108ff565b610327565b6040516100c291906109a6565b60405180910390f35b61007a6100d93660046109c0565b610510565b6100e6610625565b6040516100c29190610a2d565b805160000361013e5760405162461bcd60e51b8152602060048201526012602482015271151a5d1b19481b9bdd081c1c9bdd9a59195960721b60448201526064015b60405180910390fd5b33600090815260208190526040902080548291908490811061016257610162610a8f565b9060005260206000209060030201600101908161017f9190610b2d565b505050565b80516000036101ca5760405162461bcd60e51b815260206004820152601260248201527110dbdb1bdc881b9bdd081c1c9bdd9a59195960721b6044820152606401610135565b3360009081526020819052604090208054829190849081106101ee576101ee610a8f565b9060005260206000209060030201600201908161017f9190610b2d565b336000908152602081905260409020546006116102795760405162461bcd60e51b815260206004820152602660248201527f55736572733a2063616e277420637265617465206d6f7265207468616e20352060448201526567726f75707360d01b6064820152608401610135565b60408051606081018252336000908152602081815283822080548085528285018881529585018790528383526001808201835591845291909220835160039092020190815592519192839290918201906102d39082610b2d565b50604082015160028201906102e89082610b2d565b5050507f61350dee3e769af0698e24807d8b7b14804147d69bf836064408cc15808c70458160405161031a91906109a6565b60405180910390a1505050565b61034b60405180606001604052806000815260200160608152602001606081525090565b3360009081526020819052604090205482106103a15760405162461bcd60e51b8152602060048201526015602482015274141c9bdd9a591959081a59081b9bdd08195e1a5cdd605a1b6044820152606401610135565b3360009081526020819052604090208054839081106103c2576103c2610a8f565b9060005260206000209060030201604051806060016040529081600082015481526020016001820180546103f590610aa5565b80601f016020809104026020016040519081016040528092919081815260200182805461042190610aa5565b801561046e5780601f106104435761010080835404028352916020019161046e565b820191906000526020600020905b81548152906001019060200180831161045157829003601f168201915b5050505050815260200160028201805461048790610aa5565b80601f01602080910402602001604051908101604052809291908181526020018280546104b390610aa5565b80156105005780601f106104d557610100808354040283529160200191610500565b820191906000526020600020905b8154815290600101906020018083116104e357829003601f168201915b5050505050815250509050919050565b81516000036105565760405162461bcd60e51b8152602060048201526012602482015271151a5d1b19481b9bdd081c1c9bdd9a59195960721b6044820152606401610135565b805160000361059c5760405162461bcd60e51b815260206004820152601260248201527110dbdb1bdc881b9bdd081c1c9bdd9a59195960721b6044820152606401610135565b3360009081526020819052604090208054839190859081106105c0576105c0610a8f565b906000526020600020906003020160010190816105dd9190610b2d565b5033600090815260208190526040902080548291908590811061060257610602610a8f565b9060005260206000209060030201600201908161061f9190610b2d565b50505050565b33600090815260208181526040808320805482518185028101850190935280835260609492939192909184015b828210156107b257838290600052602060002090600302016040518060600160405290816000820154815260200160018201805461068f90610aa5565b80601f01602080910402602001604051908101604052809291908181526020018280546106bb90610aa5565b80156107085780601f106106dd57610100808354040283529160200191610708565b820191906000526020600020905b8154815290600101906020018083116106eb57829003601f168201915b5050505050815260200160028201805461072190610aa5565b80601f016020809104026020016040519081016040528092919081815260200182805461074d90610aa5565b801561079a5780601f1061076f5761010080835404028352916020019161079a565b820191906000526020600020905b81548152906001019060200180831161077d57829003601f168201915b50505050508152505081526020019060010190610652565b50505050905090565b634e487b7160e01b600052604160045260246000fd5b600082601f8301126107e257600080fd5b813567ffffffffffffffff808211156107fd576107fd6107bb565b604051601f8301601f19908116603f01168101908282118183101715610825576108256107bb565b8160405283815286602085880101111561083e57600080fd5b836020870160208301376000602085830101528094505050505092915050565b6000806040838503121561087157600080fd5b82359150602083013567ffffffffffffffff81111561088f57600080fd5b61089b858286016107d1565b9150509250929050565b600080604083850312156108b857600080fd5b823567ffffffffffffffff808211156108d057600080fd5b6108dc868387016107d1565b935060208501359150808211156108f257600080fd5b5061089b858286016107d1565b60006020828403121561091157600080fd5b5035919050565b6000815180845260005b8181101561093e57602081850181015186830182015201610922565b81811115610950576000602083870101525b50601f01601f19169290920160200192915050565b8051825260006020820151606060208501526109846060850182610918565b90506040830151848203604086015261099d8282610918565b95945050505050565b6020815260006109b96020830184610965565b9392505050565b6000806000606084860312156109d557600080fd5b83359250602084013567ffffffffffffffff808211156109f457600080fd5b610a00878388016107d1565b93506040860135915080821115610a1657600080fd5b50610a23868287016107d1565b9150509250925092565b6000602080830181845280855180835260408601915060408160051b870101925083870160005b82811015610a8257603f19888603018452610a70858351610965565b94509285019290850190600101610a54565b5092979650505050505050565b634e487b7160e01b600052603260045260246000fd5b600181811c90821680610ab957607f821691505b602082108103610ad957634e487b7160e01b600052602260045260246000fd5b50919050565b601f82111561017f57600081815260208120601f850160051c81016020861015610b065750805b601f850160051c820191505b81811015610b2557828155600101610b12565b505050505050565b815167ffffffffffffffff811115610b4757610b476107bb565b610b5b81610b558454610aa5565b84610adf565b602080601f831160018114610b905760008415610b785750858301515b600019600386901b1c1916600185901b178555610b25565b600085815260208120601f198616915b82811015610bbf57888601518255948401946001909101908401610ba0565b5085821015610bdd5787850151600019600388901b60f8161c191681555b5050505050600190811b0190555056fea2646970667358221220358576be437e086622c858d74a7f56fd7c05d670388415780789038404d4de5864736f6c634300080f0033",
  "linkReferences": {},
  "deployedLinkReferences": {}
}